:100000000C9441010C9472010C9472010C947201D5
:100010000C9472010C9472010C9472010C94720194
:100020000C9472010C9472010C9472010C94720184
:100030000C9472010C9472010C9472010C94720174
:100040000C9472010C9472010C9472010C94720164
:100050000C9472010C9472010C9472010C944B0676
:100060000C9472010C9415060C94EB050C9472011F
:100070000C9472010C9472010C9472010C94720134
:100080000C9472010C9472010C9472010C94720124
:100090000C9472010C9472010C9472010C94720114
:1000A0000C9472010C9472010C9472010C94720104
:1000B0000C9472010C9472010C9472010C947201F4
:1000C0000C9472010C9472010C9472010C947201E4
:1000D0000C9472010C9472010C9472010C947201D4
:1000E0000C9472010C9487030C9446040C949E03A8
:1000F0000C9499030C9483030C9479030C9464037B
:100100000C945E030C94EF020C947D030C94910309
:100110000C9468030C9434020C949D020C94B60564
:100120000C9495030C9457020C9465020C944302B2
:100130000C9470030C94D0030C949F030C947303E1
:100140000C948B030C9401040C9441040C946C03E8
:100150000C9407020C94A3030C9495060C9445048C
:1001600000002100240027002A002D003000330069
:1001700001010000040107010A010000220025001E
:1001800028002B002E003100340002010000050180
:1001900008010B01000020002300260029002C008C
:1001A0002F003200000100000301060109010505CE
:1001B0000505070508080808020202020A0A0808DD
:1001C000040404040101010101010101030303030B
:1001D00003030303040707070C0C0C0C0C0C0C0C9A
:1001E0000202020206060606060606060B0B0B0BAB
:1001F0000B0B0B0B010210202008081020401020D0
:1002000040800201020108040201010204081020DA
:1002100040808040201008040201800402018040D8
:100220002010080402010804020101020408102041
:100230004080010204081020408000000A0B0209DF
:100240000C0D0E0807030401000000000000000070
:10025000000000000000000000000000000000009E
:10026000000000000000121110000000000000005B
:10027000000000000000000000000000000000007E
:10028000950611241FBECFEFD1E2DEBFCDBF00E047
:100290000CBF12E0A0E0B2E0ECE7F4E100E00BBF3D
:1002A00002C007900D92A435B107D9F723E0A4E569
:1002B000B2E001C01D92AA38B207E1F711E0C1E433
:1002C000D1E000E006C021970109802FFE010E94C5
:1002D000340AC034D10780E00807A9F70E944F070D
:1002E0000C943C0A0C94000096E0899FD0011124E4
:1002F000AD5FBC4F90967C936E935F9791E0919623
:100300009C939197E0917003F091710390916F032A
:10031000992339F0309751F0811108C080911F0363
:100320001994309719F05C968C91FACF0895CF927A
:10033000DF92EF92FF920F931F9396E0899FF00157
:100340001124ED5FFC4F11A2278D30A12130310522
:1003500051F178F02230310509F451C023303105D4
:1003600009F452C01F910F91FF90EF90DF90CF9052
:1003700008956623B9F361E070E00E9474012FB71D
:10038000F8948091620290916302A0916402B0910E
:1003900065022FBF80935B0390935C03A0935D0382
:1003A000B0935E03DFCF9FB7F894C0906202D09005
:1003B0006302E0906402F09065029FBF00915B03CE
:1003C00010915C0320915D0330915E03C01AD10A45
:1003D000E20AF30A00916D0310916E0330E020E011
:1003E0000C151D052E053F0550F462E070E01F91CD
:1003F0000F91FF90EF90DF90CF900C9474016111FA
:10040000B1CF63E070E0F3CF70E060E0F0CFAF9287
:10041000BF92CF92DF92EF92FF920F931F93CF93F1
:10042000DF936C017B018B01040F151FEB015E0153
:10043000AE18BF08C017D10759F06991D601ED91E8
:10044000FC910190F081E02DC6011995892B79F777
:10045000C501DF91CF911F910F91FF90EF90DF9039
:10046000CF90BF90AF900895FC01538D448D252F00
:1004700030E0842F90E0821B930B541710F0CF963E
:10048000089501970895FC01918D828D981761F070
:10049000A28DAE0FBF2FB11D5D968C91928D9F5F87
:1004A0009F73928F90E008958FEF9FEF0895FC0166
:1004B000918D828D981731F0828DE80FF11D858D19
:1004C00090E008958FEF9FEF0895FC01918D228DAC
:1004D000892F90E0805C9F4F821B91098F73992731
:1004E000089586E692E00E94650221E0892B09F4D6
:1004F00020E0822F0895FC01A48DA80FB92FB11D13
:10050000A35ABF4F2C91848D90E001968F73992749
:10051000848FA689B7892C93A089B1898C91837027
:1005200080648C93938D848D981306C00288F38920
:10053000E02D80818F7D80830895EF92FF920F934D
:100540001F93CF93DF93EC0181E0888F9B8D8C8D7F
:1005500098131AC0E889F989808185FF15C09FB773
:10056000F894EE89FF896083E889F9898081837036
:10057000806480839FBF81E090E0DF91CF911F91E5
:100580000F91FF90EF900895F62E0B8D10E00F5F06
:100590001F4F0F731127E02E8C8D8E110CC00FB6DC
:1005A00007FCFACFE889F989808185FFF5CFCE0174
:1005B0000E947B02F1CFEB8DEC0FFD2FF11DE35A72
:1005C000FF4FF0829FB7F8940B8FEA89FB898081F7
:1005D0008062CFCF682F86E692E00C949D02CF9385
:1005E000DF93EC01888D8823B9F0AA89BB89E8895B
:1005F000F9898C9185FD03C0808186FD0DC00FB601
:1006000007FCF7CF8C9185FFF2CF808185FFEDCF7E
:10061000CE010E947B02E9CFDF91CF91089580E067
:1006200090E0892B29F00E94710281110E94000044
:1006300080E090E0892B49F080E090E0892B29F060
:100640000E94000081110E94000080E090E0892B50
:1006500049F080E090E0892B29F00E940000811190
:100660000E94000080E090E0892B49F080E090E05B
:10067000892B29F00E94000081110C94000008953C
:100680008150823108F05AC0E82FF0E08827E45BFF
:10069000FC4F8F4F0C94340A6C0370035E036403A9
:1006A00068039E03730379037D03830387038B032E
:1006B000910395039E0399039F03A30380918000F8
:1006C0008F77809380000895809180008F7DF9CF8F
:1006D00080918000877FF5CF84B58F7784BD0895A2
:1006E00084B58F7DFBCF8091B0008F778093B00071
:1006F00008958091B0008F7DF9CF809190008F7721
:10070000809390000895809190008F7DF9CF809123
:100710009000877FF5CF8091A0008F778093A00015
:1007200008958091A0008F7DF9CF8091A000877FF0
:10073000F5CF809120018F778093200108958091DB
:1007400020018F7DF9CF80912001877FF5CFCF9356
:10075000DF93282F30E0F901E65CFD4F8491F90129
:10076000EC50FE4FD491F901E255FE4FC491CC23D9
:10077000A1F081110E944003EC2FF0E0EE0FFF1F6B
:10078000EC56FE4FA591B491EC91ED2381E090E001
:1007900009F480E0DF91CF91089580E090E0FACFF6
:1007A000862F0C94A7031F93CF93DF93282F30E05D
:1007B000F901E65CFD4F8491F901EC50FE4FD491B4
:1007C000F901E255FE4FC491CC23A9F0162F8111F7
:1007D0000E944003EC2FF0E0EE0FFF1FE658FE4FA3
:1007E000A591B4918FB7F894EC91111108C0D095F0
:1007F000DE23DC938FBFDF91CF911F910895DE2B15
:10080000F8CF862F642F0C94D303CF93DF9390E01F
:10081000FC01EC50FE4F249182559E4FFC018491C7
:100820008823C9F090E0880F991FFC01E05AFE4F21
:10083000A591B491FC01E658FE4FC591D491611188
:100840000DC09FB7F8948C91209582238C9388815A
:10085000282328839FBFDF91CF910895623051F400
:100860009FB7F8943C91822F809583238C93E881E5
:100870002E2BEFCF8FB7F894EC912E2B2C938FBFAC
:10088000EACF862F642F0C940504089590E080E051
:100890000895FC0101900020E9F73197AF01481B52
:1008A000590BBC0182E793E00C940702CF93DF93CE
:1008B000EC0160E08E810E94D30361E08E810E9492
:1008C000D30360E08E810E94D3038BE891E001970F
:1008D000F1F7DF91CF910895CF92DF92EF92FF92DF
:1008E0000F931F93CF93DF936C017C0187E0E80E99
:1008F000F11CD0E0C0E0062F10E0B8010C2E02C0C1
:10090000759567950A94E2F76170F70181917F010F
:100910000E94D3032196C430D10579F7C601DF9137
:10092000CF911F910F91FF90EF90DF90CF900C949B
:100930005604CF92DF92EF92FF920F931F93CF93C3
:10094000DF93EC01F62E642F8C810E94D3038D81FE
:100950008F3F19F060E00E94D3030F2D10E08F85C8
:1009600084FF25C06E0187E0C80ED11CF12CE12C5C
:10097000B8010E2C02C0759567950A94E2F7617074
:10098000F60181916F010E94D303FFEFEF1AFF0A76
:1009900088E0E816F10461F7CE01DF91CF911F9155
:1009A0000F91FF90EF90DF90CF900C945604B80118
:1009B00084E0759567958A95E1F7CE010E946C04F5
:1009C0006F2DCE01DF91CF911F910F91FF90EF908E
:1009D000DF90CF900C946C0440E0682F82E793E0A6
:1009E0000C94990481E00E94EC048BE39FE1019751
:1009F000F1F70895CF93DF93813029F0909181032F
:100A0000986090938103809385031092860380E41D
:100A10008093870380E18093880380E58093890336
:100A200061E0809176030E940504809177038F3FF7
:100A300019F061E00E94050461E0809178030E9452
:100A40000504C2E7D3E09E01225733408091810321
:100A500084FD0BC084E090E021962817390744F408
:100A600061E08E810E940504EECF88E090E0F4CF33
:100A70008BE39DE00197F1F760E0809176030E949F
:100A8000D30360E0809178030E94D30380917703C1
:100A90008F3F19F060E00E94D3038091810384FDB1
:100AA00034C063E082E793E00E946C04CBE4D6E4B8
:100AB000CE010197F1F763E082E793E00E946C04B6
:100AC0002197F1F763E082E793E00E946C0483E5ED
:100AD00092E00197F1F762E082E793E00E946C04F4
:100AE0008091810380620E94EC0484E08093820301
:100AF0008CE00E94EC040E94F20482E08093830365
:100B000086E0DF91CF910C94EC0480620E94EC04AB
:100B10008BE496E40197F1F78091810380620E9453
:100B2000EC0483E592E00197F1F780918103806204
:100B30000E94EC04D5CF90918503691710F06FEFF8
:100B4000690FE62FF0E0EE58FC4F9489890F80681A
:100B50000C94EC0460E082E00E949B058CE392E040
:100B60000E94490461E086E10C94D30341E00E94B5
:100B7000990481E090E00895EF92FF920F931F9304
:100B8000CF93DF930E94F20460E080E00E949B0517
:100B900083E492E00E94490409E512E0C1E0780193
:100BA000D6E06C2F8D2F0E949B05F70161917F018C
:100BB00082E793E00E94B605DF5FD93091F70D5FC1
:100BC0001F4FCF5FC43059F7DF91CF911F910F9125
:100BD000FF90EF9008951F920F920FB60F9211247D
:100BE0000BB60F922F933F934F935F936F937F9327
:100BF0008F939F93AF93BF93EF93FF9386E692E01B
:100C00000E947B02FF91EF91BF91AF919F918F91D5
:100C10007F916F915F914F913F912F910F900BBEFC
:100C20000F900FBE0F901F9018951F920F920FB646
:100C30000F9211240BB60F922F938F939F93EF93E4
:100C4000FF93E0917602F09177028081E0917C023F
:100C5000F0917D0282FD1DC0908180917F028F5FA7
:100C60008F7320918002821741F0E0917F02F0E0C3
:100C7000EA59FD4F958F80937F02FF91EF919F91ED
:100C80008F912F910F900BBE0F900FBE0F901F9062
:100C900018958081F2CF1F920F920FB60F921124F8
:100CA0002F933F938F939F93AF93BF938091620253
:100CB00090916302A0916402B09165023091580254
:100CC00023E0230F2D3758F50196A11DB11D209368
:100CD00058028093620290936302A0936402B093DF
:100CE00065028091540290915502A0915602B091F4
:100CF00057020196A11DB11D809354029093550295
:100D0000A0935602B0935702BF91AF919F918F91DC
:100D10003F912F910F900FBE0F901F90189526E8CE
:100D2000230F0296A11DB11DD2CF1092690210921D
:100D3000680288EE93E0A0E0B0E080936A029093AE
:100D40006B02A0936C02B0936D0288E192E09093E5
:100D500067028093660285EC90E090937302809323
:100D6000720284EC90E0909375028093740280ECA0
:100D700090E0909377028093760281EC90E09093DC
:100D800079028093780282EC90E090937B028093CA
:100D90007A0286EC90E090937D0280937C02109220
:100DA0007F021092800210928102109282021092B1
:100DB00075031092740384E392E09093730380931D
:100DC00072038DE0809376038FEF8093770388E042
:100DD000809378038CE0809379038BE080937A038F
:100DE0008AE080937B0389E080937C0310927D03EB
:100DF00010927E0310927F03109280031092810361
:100E000081E00E94FA0410920503109209031092E7
:100E1000080310920A038AE292E0909304038093FD
:100E20000303EFE1F3E010821482138215823696F9
:100E300083E0EB35F807B9F784E092E0909366031E
:100E40008093650381E092E0909368038093670349
:100E500084E08093690383E080936A0388E092E0F2
:100E600090936403809363038AE090E090936C0313
:100E700080936B0384EF91E090936E0380936D03F6
:100E8000109271031092700310925F03109260032E
:100E9000109261031092620310926F030895789488
:100EA00084B5826084BD84B5816084BD85B582606F
:100EB00085BD85B5816085BD80916E008160809320
:100EC0006E00109281008091810082608093810089
:100ED0008091810081608093810080918000816099
:100EE000809380008091B10084608093B1008091F4
:100EF000B00081608093B000809191008260809307
:100F00009100809191008160809391008091900088
:100F10008160809390008091A10082608093A10005
:100F20008091A10081608093A1008091A0008160E8
:100F30008093A000809121018260809321018091A3
:100F40002101816080932101809120018160809343
:100F5000200180917A00846080937A0080917A00E9
:100F6000826080937A0080917A00816080937A0019
:100F700080917A00806880937A001092C10060E0CE
:100F800086E10E94D303E0917602F091770282E03D
:100F90008083E0917202F09173021082E0917402FA
:100FA000F09175028FEC808310927E02E0917A02BC
:100FB000F0917B0286E08083E0917802F0917902E3
:100FC000808180618083E0917802F0917902808154
:100FD00088608083E0917802F09179028081806856
:100FE0008083E0917802F091790280818F7D808307
:100FF00084E00E94FA040E94F20482E692E009E58D
:1010000012E02EE4F80121938F018E179F07D1F78C
:101010000E94BC05812C912C5401839444244A9451
:10102000542C86E692E00E946502892BB9F086E690
:1010300092E00E9443028F3609F455C0883709F4C4
:1010400049C0853609F054C01092000260E082E089
:101050000E949B0585E492E00E9449048091000271
:10106000882309F456C181E080936F038FB7F89409
:101070004091620250916302609164027091650236
:101080008FBF80915F0390916003A0916103B09145
:101090006203481B590B6A0B7B0B80916B03909189
:1010A0006C03B0E0A0E084179507A607B70708F027
:1010B00033C1C0E080916903C81758F5E09165031A
:1010C000F0916603EC0FF11D62E080810E9405043F
:1010D000CF5FF0CF1092000260E082E00E949B059B
:1010E0008CE492E0B9CF109200020E94AA05B6CF1C
:1010F000F1E0F0930002E82F880FFF0BE85DFD4F51
:1011000080818E3409F0AFCF58E750830E94BC0530
:10111000A5CF312C80916A03381608F05FC0E32C0C
:10112000F12CE0916703F0916803EE0DFF1D61E083
:1011300080810E940504E0916703F0916803EE0D41
:10114000FF1D60E080810E94D303D501C401032C00
:1011500004C0880F991FAA1FBB1F0A94D2F73C0135
:101160006C01C094D094212C809169032816F8F466
:10117000C22DD0E0E0916503F0916603EC0FFD1FF6
:1011800080810E94A7032496CC0FDD1FCD5FDC4F2A
:10119000892B41F4888199818629972999838883AD
:1011A0002394E2CF888199818C219D21F7CFE09112
:1011B0006703F0916803EE0DFF1D61E080810E94DE
:1011C000D3038091670390916803E80EF91E60E0F5
:1011D000F70180810E94050433949CCF53E0E52EF3
:1011E00053E0F52EE7018F8D98A1892B21F41C8EF9
:1011F0005E8E4D8E19A22696F3E0CF33DF0799F766
:10120000712C80916903781608F053C0612CC72CAB
:10121000D12CCC0CDD1CC601855F9C4F6C0120914C
:101220006A03621608F043C0F60160817181062CE2
:1012300002C0769567950A94E2F7729E9001112498
:10124000260D311DE3E0F3E080E0458D568D241737
:10125000350709F4C9C08F5F36968A30B1F760FF51
:1012600024C0E3E0F3E090E080E0448D411118C039
:10127000E0916303F0916403E20FF31F408156E0B5
:10128000589FF001599FF00D1124ED5FFC4F448FE2
:10129000368F258F10A2178E61E00E94970105C03E
:1012A000019636968A30910501F76394B8CF73940E
:1012B000A8CF80E0F70191A19111892FF6E0EF0E00
:1012C000F11CCE15DF05B1F79FB7F894409162028B
:1012D0005091630260916402709165029FBF4093D8
:1012E0005F035093600360936103709362038823EC
:1012F00099F0E0902403EE2079F080912203909100
:101300002303019749F4C0911F038FEC8C0F8930A0
:1013100030F00E940F0385CE10926F03FACF0C2E8F
:10132000000CDD0BFE01E85DFD4F80818E3489F7F6
:101330005FE650830E94BC05109200028091590222
:10134000E9E5F2E020E03EE6F32E9191328193133D
:1013500007C03581931304C09E3411F02E2DF82E52
:1013600092E0EC35F90789F7E9E5F2E09081318107
:10137000931307C03281931304C09E3411F02E2DB5
:10138000F82E33960E171F0789F790915D02891387
:1013900008C030916102831304C08E3411F02E2DE9
:1013A000F82E30915B02931306C040915F029413B4
:1013B00002C09E34D9F48E34E9F421113BC08EE68C
:1013C000F82E38C088E790E00E94EA0260E082E0F0
:1013D0000E949B058CE492E044C08FE690E00E945E
:1013E000EA020E94AA0595CF617057CFF92E2E2DE3
:1013F0008E3401F180915A028E34F9F23E34E9F2D2
:1014000080915C028E34C9F29E34B9F280915E0202
:101410008E3499F280915F028E3479F2809160026D
:101420008E3459F2809161028E3439F2211102C05A
:1014300095E6F92ECE010E94EA02EFE6FE1669F269
:10144000F8E7FF1609F4BECF55E6F51262CF85E640
:1014500090E00E94EA0260E082E00E949B0585E441
:1014600092E00E94490455CFEE0FFF1F881F8BBFEB
:0C1470000790F691E02D1994F894FFCF3E
:10147C00014344454241403F3132333435363738ED
:10148C00392A3023000000009D0207023402EF02CB
:10149C006502430257020000000041040104D0031E
:1014AC0000000000B6050702460445044F20776F84
:1014BC006E21004F00457175616C21005820776FCB
:0414CC006E2100008D
:00000001FF
